:100000000C9434000C9446000C9446000C94F001BF
:100010000C9446000C9426010C9446000C94460067
:100020000C9446000C9446000C9446000C94460038
:100030000C9446000C9446000C9446000C94460028
:100040000C9446000C9446000C9446000C94460018
:100050000C9446000C9446000C9446000C94460008
:100060000C9446000C94460011241FBECFEFD8E03C
:10007000DEBFCDBF21E0A0E0B1E001C01D92A630FF
:10008000B207E1F70E9481000C94DA060C9400009C
:10009000ECE7F0E0108280818064808380818F773C
:1000A0008083808180628083EAE7F0E01082808133
:1000B000806880838081816080838081826080838A
:1000C000808184608083EEE7F0E0808181608083BE
:1000D0008081826080838081846080830895ECE7E2
:1000E000F0E09081907F892B8083EAE7F0E08081C7
:1000F0008064808380917A0086FDFCCF80917900B6
:100100000895F8948AB18B728AB98BB1846D8BB9DA
:1001100084B18E7C84B985B1816385B987B18760EC
:1001200087B988B1887F88B90E9448004FE35CE9AD
:1001300068E070E080E00E9404044FE35CE968E05E
:1001400070E080E00E94310460E074E080E00E9492
:10015000F50260E074E080E00E941703E8E6F0E05A
:10016000808184608083ADE6B0E08C9184698C935B
:10017000808181608083EBE6F0E080818163808311
:100180001092C1007894809100019091010181301A
:100190009105E1F182309105E1F1892BE9F581E0EA
:1001A00088B98FE39CE90197F1F700C0000086E071
:1001B0000E946F00809305010E945E048FE39CE91A
:1001C0000197F1F700C0000084E00E946F00809367
:1001D00004010E9439038FE39CE90197F1F700C005
:1001E000000085E00E946F00809303010E94990443
:1001F0008FE39CE90197F1F700C0000087E00E94BF
:100200006F00809302010E946F03BDCF82E088B926
:10021000BACF84E088B9B7CF1092010110920001E3
:10022000B2CFF999FECF92BD81BD8FB381608FBBF4
:1002300080B50895F999FECF92BD81BD60BD8FB3A1
:1002400084608FBB8FB382608FBB08951F920F9223
:100250000FB60F9211242F933F934F935F936F9399
:100260007F938F939F93AF93BF93EF93FF934F9998
:1002700020C02FEF80E792E0215080409040E1F7CE
:1002800000C000004F999BC0809100019091010136
:10029000019690930101809300018091000190915B
:1002A000010103970CF48BC0109201011092000120
:1002B00086C04C9941C084E088B98091000190913A
:1002C0000101892BC9F46091050180E090E00E9452
:1002D0001A016091040181E090E00E941A0160918E
:1002E000030182E090E00E941A016091020183E024
:1002F00090E00E941A0163C0809100019091010179
:10030000019709F05CC080E090E00E9411010E941A
:100310005E0481E090E00E9411010E94390382E0B6
:1003200090E00E9411010E94990483E090E00E94F5
:1003300011010E946F0343C04A9941C0809100019E
:1003400090910101892BD9F484E088B9609105016D
:100350008CE090E00E941A01609104018DE090E031
:100360000E941A01609103018EE090E00E941A0140
:10037000609102018FE090E00E941A0120C08091FC
:100380000001909101010197D1F484E088B98CE0DB
:1003900090E00E9411010E945E048DE090E00E94B6
:1003A00011010E9439038EE090E00E9411010E9429
:1003B00099048FE090E00E9411010E946F03FF9169
:1003C000EF91BF91AF919F918F917F916F915F91CD
:1003D0004F913F912F910F900FBE0F901F90189546
:1003E0001F920F920FB60F9211242F933F934F93AA
:1003F0005F936F937F938F939F93AF93BF93EF938D
:10040000FF93189941C084E088B9809100019091D0
:100410000101892BC9F46091050184E090E00E94FC
:100420001A016091040185E090E00E941A01609138
:10043000030186E090E00E941A016091020187E0CA
:1004400090E00E941A0161C0809100019091010129
:10045000019709F05AC084E090E00E9411010E94C7
:100460005E0485E090E00E9411010E94390386E05D
:1004700090E00E9411010E94990487E090E00E94A0
:1004800011010E946F0341C01C993FC084E088B9EC
:100490008091000190910101892BC9F460910501BF
:1004A00088E090E00E941A016091040189E090E0E8
:1004B0000E941A01609103018AE090E00E941A01F3
:1004C000609102018BE090E00E941A011EC08091B1
:1004D0000001909101010197C1F488E090E00E9431
:1004E00011010E945E0489E090E00E9411010E94C7
:1004F00039038AE090E00E9411010E9499048BE088
:1005000090E00E9411010E946F03FF91EF91BF9153
:10051000AF919F918F917F916F915F914F913F919B
:100520002F910F900FBE0F901F9018954F925F92D2
:100530006F927F92AF92BF92CF92DF92EF92FF9233
:100540000F931F93CF93DF93CDB7DEB728970FB6E6
:10055000F894DEBF0FBECDBF29013A01ED82FE82C5
:100560000F8318870E94D10469837A838B839C83CD
:10057000A6019501698D7A8D8B8D9C8D0E94D10489
:100580009B01AC0169817A818B819C810E946D06FF
:1005900069837A838B839C83A3019201C801B7018D
:1005A0000E94D1049B01AC0169817A818B819C817D
:1005B0000E943E059B01AC01C601B5010E94D20418
:1005C00028960FB6F894DEBF0FBECDBFDF91CF9156
:1005D0001F910F91FF90EF90DF90CF90BF90AF9061
:1005E0007F906F905F904F90089594B1986094B908
:1005F000E0EBF0E0908193609083882321F080818C
:10060000806C808305C0E0EBF0E0808180688083AF
:100610006115744031F4E1EBF0E080818760808304
:100620000895E1EBF0E080818160808308959AB1C4
:1006300098609AB9E0EBF0E0908193609083882312
:1006400021F080818063808305C0E0EBF0E0808151
:10065000806280836115744031F4E1EBF0E08081C9
:10066000876080830895E1EBF0E080818160808382
:100670000895AF92BF92CF92DF92EF92FF920F93C5
:100680001F93682F70E080E090E00E94DF0522E475
:100690002F9320E12F931F921F920F2EA12CB12C8C
:1006A000F0ECCF2EF0E4DF2EF02DE12CF12C0FE753
:1006B00013E420E030E0A9010E9496020F900F9011
:1006C0000F900F900E94B0056093B3001F910F919F
:1006D000FF90EF90DF90CF90BF90AF900895AF92D2
:1006E000BF92CF92DF92EF92FF920F931F93682FEA
:1006F00070E080E090E00E94DF0522E42F9320E18B
:100700002F931F921F920F2EA12CB12CF0ECCF2E05
:10071000F0E4DF2EF02DE12CF12C0FE713E420E0C4
:1007200030E0A9010E9496020F900F900F900F9059
:100730000E94B0056093B4001F910F91FF90EF905D
:10074000DF90CF90BF90AF9008954F925F926F92DD
:100750007F92AF92BF92CF92DF92EF92FF920F9370
:100760001F93CF93DF93CDB7DEB728970FB6F894DA
:10077000DEBF0FBECDBF29013A01ED82FE820F839D
:1007800018870E94D10469837A838B839C83A60196
:100790009501698D7A8D8B8D9C8D0E94D1049B0172
:1007A000AC0169817A818B819C810E946D0669838D
:1007B0007A838B839C83A3019201C801B7010E94B5
:1007C000D1049B01AC0169817A818B819C810E945B
:1007D0003E059B01AC01C601B5010E94D2042896DA
:1007E0000FB6F894DEBF0FBECDBFDF91CF911F9142
:1007F0000F91FF90EF90DF90CF90BF90AF907F90E0
:100800006F905F904F90089594B1926094B9E0E832
:10081000F0E0908192609083E1E8F0E0908198614F
:1008200090835093870040938600882331F0E0E85E
:10083000F0E08081806C808305C0E0E8F0E080819A
:10084000806880836830710531F4E1E8F0E08081F0
:10085000826080830895E1E8F0E080818460808395
:10086000089594B1946094B9E0E8F0E090819260CA
:100870009083E1E8F0E09081986190835093870045
:1008800040938600882331F0E0E8F0E080818063C7
:10089000808305C0E0E8F0E080818062808368307A
:1008A000710531F4E1E8F0E0808182608083089591
:1008B000E1E8F0E08081846080830895AF92BF9288
:1008C000CF92DF92EF92FF920F931F93682F70E009
:1008D00080E090E00E94DF0525E42F9325E82F9328
:1008E00025E52F932F930F2EFCE1AF2EF7ECBF2EB3
:1008F000FCEFCF2EF4E4DF2EF02DE12CF12C0FE7EE
:1009000013E420E030E0A9010E94A5030F900F90AE
:100910000F900F900E94B00570938900609388003B
:100920001F910F91FF90EF90DF90CF90BF90AF900D
:100930000895AF92BF92CF92DF92EF92FF920F9302
:100940001F93682F70E080E090E00E94DF0525E4AF
:100950002F932AE72F931F921F920F2EA12CB12CB9
:10096000F1EECF2EF4E4DF2EF02DE12CF12C0FE789
:1009700013E420E030E0A9010E94A5030F900F903E
:100980000F900F900E94B00570938B0060938A00C7
:100990001F910F91FF90EF90DF90CF90BF90AF909D
:1009A00008955058BB27AA270E94E9040C943306E7
:1009B0000E94250638F00E942C0620F039F49F3F53
:1009C00019F426F40C9422060EF4E095E7FB0C943F
:1009D0001C06E92F0E94440658F3BA1762077307F2
:1009E0008407950720F079F4A6F50C9466060EF4BA
:1009F000E0950B2EBA2FA02D0B01B90190010C012F
:100A0000CA01A0011124FF27591B99F0593F50F446
:100A1000503E68F11A16F040A22F232F342F44279E
:100A2000585FF3CF469537952795A795F040539596
:100A3000C9F77EF41F16BA0B620B730B840BBAF066
:100A40009150A1F0FF0FBB1F661F771F881FC2F7D1
:100A50000EC0BA0F621F731F841F48F487957795E5
:100A60006795B795F7959E3F08F0B0CF9395880F9F
:100A700008F09927EE0F9795879508950E945205E3
:100A80000C9433060E942C0658F00E94250640F074
:100A900029F45F3F29F00C941C0651110C94670651
:100AA0000C9422060E94440668F39923B1F355235F
:100AB00091F3951B550BBB27AA2762177307840771
:100AC00038F09F5F5F4F220F331F441FAA1FA9F307
:100AD00035D00E2E3AF0E0E832D091505040E695F5
:100AE000001CCAF72BD0FE2F29D0660F771F881F56
:100AF000BB1F261737074807AB07B0E809F0BB0B49
:100B0000802DBF01FF2793585F4F3AF09E3F51055C
:100B100078F00C941C060C9467065F3FE4F3983E53
:100B2000D4F3869577956795B795F7959F5FC9F745
:100B3000880F911D9695879597F90895E1E0660FC6
:100B4000771F881FBB1F621773078407BA0720F03F
:100B5000621B730B840BBA0BEE1F88F7E0950895A8
:100B60000E944C0688F09F5798F0B92F9927B751EB
:100B7000B0F0E1F0660F771F881F991F1AF0BA9541
:100B8000C9F714C0B13091F00E946606B1E0089533
:100B90000C946606672F782F8827B85F39F0B93F25
:100BA000CCF3869577956795B395D9F73EF49095F4
:100BB0008095709561957F4F8F4F9F4F0895E89472
:100BC00009C097FB3EF490958095709561957F4F95
:100BD0008F4F9F4F9923A9F0F92F96E9BB27939543
:100BE000F695879577956795B795F111F8CFFAF453
:100BF000BB0F11F460FF1BC06F5F7F4F8F4F9F4F84
:100C000016C0882311F096E911C0772321F09EE8E1
:100C1000872F762F05C0662371F096E8862F70E047
:100C200060E02AF09A95660F771F881FDAF7880F21
:100C30009695879597F9089597F99F6780E870E0F2
:100C400060E008959FEF80EC089500240A94161642
:100C5000170618060906089500240A9412161306AA
:100C6000140605060895092E0394000C11F4882338
:100C700052F0BB0F40F4BF2B11F460FF04C06F5F54
:100C80007F4F8F4F9F4F089557FD9058440F551F2A
:100C900059F05F3F71F04795880F97FB991F61F0FE
:100CA0009F3F79F087950895121613061406551F75
:100CB000F2CF4695F1DF08C0161617061806991FE1
:100CC000F1CF86957105610508940895E894BB27D6
:100CD00066277727CB0197F908950E9480060C9428
:100CE00033060E94250638F00E942C0620F095233A
:100CF00011F00C941C060C94220611240C94670627
:100D00000E94440670F3959FC1F3950F50E0551F64
:100D1000629FF001729FBB27F00DB11D639FAA2750
:100D2000F00DB11DAA1F649F6627B00DA11D661F9F
:100D3000829F2227B00DA11D621F739FB00DA11DC0
:100D4000621F839FA00D611D221F749F3327A00D7A
:100D5000611D231F849F600D211D822F762F6A2F16
:100D600011249F5750409AF0F1F088234AF0EE0F7B
:100D7000FF1FBB1F661F771F881F91505040A9F7A8
:100D80009E3F510580F00C941C060C9467065F3F53
:100D9000E4F3983ED4F3869577956795B795F795E4
:100DA000E7959F5FC1F7FE2B880F911D969587955C
:080DB00097F90895F894FFCFB4
:00000001FF
